:020000040800F2
:1000000000000320AD690008250B0008270B00083D
:10001000290B00082B0B00082D0B0008FD690008B8
:100020000000000000000000000000002F0B00088E
:10003000310B000800000000330B0008350B0008EE
:10004000FD690008FD690008FD690008FD690008F8
:10005000FD690008FD690008FD690008FD690008E8
:10006000FD690008FD690008FD690008FD690008D8
:10007000FD690008FD690008FD690008FD690008C8
:10008000FD690008FD690008FD690008FD690008B8
:10009000FD690008FD690008FD690008FD690008A8
:1000A000FD690008FD690008FD690008FD69000898
:1000B000FD690008FD690008FD690008FD69000888
:1000C000FD690008FD690008FD690008FD69000878
:1000D000FD690008FD690008FD690008FD69000868
:1000E000FD690008FD690008FD690008FD69000858
:1000F000FD690008FD690008FD690008FD69000848
:10010000FD690008FD690008FD690008FD69000837
:10011000FD690008FD690008FD690008FD69000827
:10012000FD690008FD690008FD690008FD69000817
:10013000FD690008FD690008FD690008FD69000807
:10014000FD690008FD690008FD690008FD690008F7
:10015000FD690008FD690008FD690008FD690008E7
:10016000FD6900083D0B0008FD690008FD690008F5
:10017000FD69000800000000FD69000800000000A3
:10018000FD690008FD690008FD690008FD690008B7
:10019000FD690008FD690008FD690008FD690008A7
:1001A000FD690008FD690008FD690008FD69000897
:1001B000FD690008FD690008FD690008FD69000887
:1001C000FD690008FD690008FD690008FD69000877
:1001D000FD690008FD690008FD690008FD69000867
:1001E000FD690008FD690008FD690008FD69000857
:0801F000FD6900080000000099
:1001F80010F8012B11F8013B012A28BF9A42F7D0C9
:10020800D01A704753B94AB9002908BF00281CBF43
:100218004FF0FF314FF0FF3000F00CB8ADF1080C93
:100228006DE904CE07F0ACFCDDF804E0DDE902235B
:1002380004B07047704700BF0348044B834202D0A4
:10024800034B03B11847704780010020800100204C
:1002580000000000064B0749C91A891048BF013140
:10026800491003D0044B0BB101481847704700BF31
:1002780080010020800100200000000010B5064C1D
:10028800237843B9FFF7D8FF044B13B10448AFF301
:1002980000800123237010BD8001002000000000B1
:1002A800747E000808B5054B1BB105490548AFF336
:1002B8000080BDE80840FFF7CDBF00BF0000000088
:1002C80084010020747E0008F0B58BB000240594EA
:1002D80006940794089409942F4BDA6C42F00402B0
:1002E800DA64DA6C02F004020192019ADA6C42F0E4
:1002F8008002DA64DA6C02F080020292029ADA6C06
:1003080042F00102DA64DA6C02F001020392039A05
:10031800DA6C42F00202DA64DB6C03F00203049345
:10032800049B1E4F22463F21384604F0BCFD1C4E5C
:1003380001224FF48051304604F0B5FD43F6FF73B7
:10034800059306940794174D05A9284604F0C0FCA8
:100358004FF40043059302230693079408940F2350
:10036800099305A9284604F0B3FC3F23059301250A
:1003780006950794089405A9384604F0A9FC4FF49B
:100388008053059306950795089405A9304604F00F
:100398009FFC0BB0F0BD00BF0010024000000242FD
:1003A800000402420008024238B50D461446A1B2C4
:1003B800284600F037FF054B18700128F7D00328AE
:1003C80001D0204638BD0020FCE700BF9C0100207A
:1003D80072B6FEE708B51148114B0360114B436034
:1003E800002383600122C260036143618361C361AA
:1003F800036203F076F850B90021084803F044FA84
:1004080038B90021054803F06DFA20B908BDFFF797
:10041800DFFFFFF7DDFFFFF7DBFF00BF88020020EB
:10042800005400405B3D300008B51148114B036093
:10043800114B4360002383600122C2600361436162
:100448008361C361036203F04CF850B90021084886
:1004580003F01AFA38B90021054803F043FA20B925
:1004680008BDFFF7B5FFFFF7B3FFFFF7B1FF00BF08
:1004780034020020005800405B3D300008B51548A4
:10048800154B03604FF4E133436000238360C3607E
:1004980003610C2242618361C36103624362836228
:1004A80005F017F970B900210A4805F08AF958B91A
:1004B8000021084805F0AAF940B9064805F062F994
:1004C80030B908BDFFF784FFFFF782FFFFF780FF11
:1004D800FFF77EFFA00100200048004008B500207B
:1004E80004F0D4FD18B904F0E3FD10B908BDFFF716
:1004F8006FFFFFF76DFF00B599B04822002106A8ED
:1005080007F082F800230193029303930493059361
:100518004FF4007004F0F6FC30BB032206924FF44F
:10052800803307934FF48073099340230A9302237F
:100538001193129213930A2214920722159216937A
:10054800179306A803F008FB80B90F230193032132
:100558000291002303930493059301A803F0D6FEA8
:1005680030B919B05DF804FBFFF732FFFFF730FF31
:10057800FFF72EFF08B502F02FFEFFF7BCFFFFF7CD
:10058800A3FEFFF727FFFFF74FFFFFF777FFFFF700
:10059800A5FF00F04DFD4FF4FA6002F041FE094856
:1005A80006F032FEA12000F00DFABF2000F00AFA92
:1005B80000F07CF9044806F027FE4FF47A7002F048
:1005C8002FFEF7E7907E00089C7E0008BFF34F8F50
:1005D8000549CA6802F4E062044B1343CB60BFF3D9
:1005E8004F8F00BFFDE700BF00ED00E00400FA05F3
:1005F80008B5FFF7FDFDB0FA80F0400908BD08B561
:10060800FFF7E4FF08B5084605491030FFF7F0FF8B
:1006180000B908BD00F02AFA00F060FAF9E700BF57
:10062800AC7E000870B598B001F11004204920464E
:10063800FFF7DEFF38B154221E4903A806F0BAFEC0
:10064800012400250CE01C492046FFF7D1FF0028B3
:10065800F6D05422194903A806F0ACFEF0E702349C
:10066800FE2C0FDC64230322A1B203A803F056F882
:100678000028F4D105F160036B4403F8604C0135A0
:10068800EDB2ECE72E4629460D4806F0D9F90024CC
:1006980009E004F160036B4413F8602C2146094813
:1006A80006F0CEF90134A642F3DC18B070BD00BFE5
:1006B800B47E000888020020B87E000834020020BA
:1006C800BC7E0008D87E000830B597B00D4601F111
:1006D800100436492046FFF78BFF58B934492046A5
:1006E800FFF786FF80B15422324901A806F062FE66
:1006F80017B030BDA12000F065F9BF2000F062F905
:100708002D4806F081FDF3E72C492046FFF770FFDE
:1007180028B154222A4901A806F04CFEE8E72949E5
:100728002046FFF765FF88B927492046FFF760FF95
:100738000028DDD0C522FE21BF2000F021F90122CA
:10074800FD21BF2000F01CF9002423E0C522FE2172
:10075800A12000F015F90122FD21A12000F010F9D7
:10076800002405E00022E1B2A12000F009F90134DB
:10077800BF2CF7DD05F1200006F011FFFF22C1B202
:10078800A12000F0FDF8B3E70022E1B2BF2000F09D
:10079800F7F80134BF2CF7DD05F1200006F0FFFE65
:1007A800FF22C1B2BF2000F0EBF8A1E7FC7E0008F1
:1007B800147F000888020020047F0008187F0008C2
:1007C800340200201C7F0008207F0008F0B5A1B08B
:1007D80000239E4619463DE020AA02EB0E12134460
:1007E800002203F8802C0EF101042A496846FFF71D
:1007F800FFFE00283BD128496846FFF7F9FE00288C
:1008080035D126496846FFF7F3FE054600283DD155
:1008180023496846FFF7ECFE064660BB2149684657
:10082800FFF7E6FE074658BB1F496846FFF7E0FE9C
:10083800054660B369462046FFF746FF3D4626E079
:1008480020AA02EB0E121A44002302F8803C0EF193
:10085800010E0131425C002ABED0202AF0D020AC23
:1008680004EB0E1C9C440CF8802C0133F1E769461C
:100878002046FFF7C4FE69462046FFF7D3FE06E090
:1008880069462046FFF7BEFE354600E001252846AA
:1008980021B0F0BD247F00082C7F0008307F0008BD
:1008A800347F0008387F0008407F000810B596B0F4
:1008B800002101914C2202A806F0A6FE2CE003F1CB
:1008C80058026A442D2102F8041C0133012BF6DD7D
:1008D800002306E003F158026A442D2102F8541C53
:1008E80001334F2BF6DD234806F0AAF8224B1B688C
:1008F800986806F03DFD00241CE004F158030DEB58
:100908000304002304F8543C1C4806F07DFC01A8AD
:10091800FFF75CFF01282BD00023D7E7202006F043
:1009280077FA082006F074FA134B1B68986806F0EB
:100938001FFD013C4FF6FF72012115A800F088FC4D
:100948000028F7D19DF8540006F062FA0A4B1B689C
:10095800986806F00DFD9DF854300D2BCDD0082B6E
:10096800DCD004F158026A4402F8543C0134E1E74F
:1009780016B010BD487F000824010020A87E00089A
:1009880000B583B013460B4A117053704FF4FA63E5
:10099800009302230146084802F002FE30B10146E6
:1009A800064806F04DF803B05DF804FB044806F06D
:1009B8002BFCF8E7DC02002034020020547F0008FA
:1009C800687F000838B505460146214806F038F822
:1009D800C522FE212846FFF7D3FF0022FD21284625
:1009E800FFF7CEFF002405E0FF22E1B22846FFF71B
:1009F800C7FF0134172CF7DDC522FE212846FFF773
:100A0800BFFF0122FD212846FFF7BAFF002405E0B9
:100A18000022E1B22846FFF7B3FF0134BF2CF7DD0F
:100A2800C522FE212846FFF7ABFF0322FD212846F9
:100A3800FFF7A6FFFF2201212846FFF7A1FF0122A9
:100A480000212846FFF79CFF642002F0E9FB38BD2F
:100A5800787F000802460120034603E05B00DBB212
:100A68000130C0B21342F9D07047000038B5164BB8
:100A780000251D605D609D6012E0144B33F8141072
:100A8800134804F009FA00F00100A0400E4A32F8B9
:100A98001530034322F8153001340D2CEDDD0135F6
:100AA800052D0FDC0B4C00224FF6FF71204604F099
:100AB800FAF90122084B33F81510204604F0F3F92F
:100AC8000024EAE738BD00BFF00200200C00002037
:100AD80000080242000002420000002010B5002475
:100AE80000E00134052C11DC094B33F81400002810
:100AF800F7D0FFF7AFFFC4EBC40300EB4300054B8F
:100B080033F81010044805F09BFFEAE710BD00BF5A
:100B1800F0020020A07F00088C7F0008FEE7FEE7B7
:100B2800FEE7FEE7FEE770477047704708B502F03A
:100B380065FB08BD08B5024801F063F908BD00BFB0
:100B48001C05002000B583B00B4B1A6E42F0010261
:100B58001A661A6E02F001020092009A9A6D42F02B
:100B680080529A659B6D03F080530193019B04F0BA
:100B7800AFF903B05DF804FB0010024010B5AEB049
:100B88000446002129912A912B912C912D91942290
:100B980004A806F039FD2368314A934204D0314A4B
:100BA80093422FD02EB010BD402304934FF400532E
:100BB800179304A803F0D8FD08BB2B4CE36C43F053
:100BC8000203E364E36C03F002030093009B4FF419
:100BD8004073299312232A9300232B932C930423E5
:100BE8002D9329A9214804F073F8A36D43F4001349
:100BF800A365A36D03F400130193019BD2E7FFF7EC
:100C0800E7FBDAE7802304934FF40043189304A822
:100C180003F0AAFD08BB144CE36C43F00203E36441
:100C2800E36C03F002030293029B4FF4C043299341
:100C380012232A9300232B932C9304232D9329A961
:100C48000A4804F045F8A36D43F48003A365A36D37
:100C580003F480030393039BA4E7FFF7B9FBDAE7E8
:100C680000540040005800400010024000040242B6
:100C780010B5ACB0044600212791289129912A91FA
:100C88002B91942202A806F0BFFC2268184B9A42C6
:100C980001D02CB010BD042302932023119302A885
:100CA80003F062FD08BB134B9A6D42F480229A65EB
:100CB8009A6D02F480220092009ADA6C42F00202E5
:100CC800DA64DB6C03F002030193019B4FF4406389
:100CD800279302232893002329932A9307232B93EE
:100CE80027A9054803F0F4FFD3E7FFF771FBDAE71C
:100CF800004800400010024000040242032805D8C2
:100D0800DFE800F005040205012070470320704762
:100D180008B5FFF7F0FB08BD30B5ADB004460021BB
:100D28002791289129912A912B91942202A806F0C3
:100D38006BFC2268244B9A4201D02DB030BD4FF491
:100D4800005302934FF080631F93032303930423FC
:100D580004930C2305930723069302230793089310
:100D68004FF48013099302A803F0FEFC48BB174C0C
:100D7800E36C43F00103E364E36C03F001030093C5
:100D8800009B4FF4C05327930223289300252995ED
:100D98002A950A232B9327A90D4803F099FFE36DA1
:100DA80043F40013E365E36D03F400130193019B1F
:100DB8002A462946492004F041F9492004F04EF911
:100DC800BBE7FFF705FBD2E700D400400010024064
:100DD8000000024208B500F52C71D0F8F00204F0CA
:100DE800F8FD08BD08B501EB810300EBC303D3F898
:100DF8007C21D0F8F00204F07EFE08BD08B501EBB6
:100E0800810300EBC303DA6BD0F8F00204F0D6FEDE
:100E180008BD08B5D0F8F00204F058FE08BD10B5BA
:100E280004468368022B09D10121D4F8F00204F0AA
:100E38002EFED4F8F00204F0F8FD10BDFFF7C8FA52
:100E4800F2E7000010B50446D0F8F00204F022FEE4
:100E5800A36923B1024A136943F00603136110BD65
:100E680000ED00E010B50446836923B9D4F8F00218
:100E780004F01FFE10BD044A136923F00603136132
:100E8800FFF746FFF2E700BF00ED00E038B5054682
:100E9800204CC4F8F002C0F8C84204F011F81E4B08
:100EA8002360082363600223A36023610023636136
:100EB800A361E3612362204600F072FA30BB182375
:100EC80000221146D5F8C80201F09CF958230022E7
:100ED8008021D5F8C80201F095F9C02300228121AC
:100EE800D5F8C80201F08EF94FF488730022012169
:100EF800D5F8C80201F086F94FF4807300228221E8
:100F0800D5F8C80201F07EF9002038BDFFF760FA75
:100F1800D5E700BF1C05002000D4004008B5D0F874
:100F2800C80200F0ABFAFFF7E9FE08BD08B5944621
:100F38001A466346D0F8C80201F03CF8FFF7DEFE17
:100F480008BD08B5D0F8C80201F072F8FFF7D6FE60
:100F580008BD08B5D0F8C80201F0E4F8FFF7CEFEE6
:100F680008BD08B5D0F8C80201F011F9FFF7C6FEB0
:100F780008BDD0F8C83211F0800F08D101F07F0108
:100F880001EB810103EBC10393F86A01704701F09B
:100F98007F01013101EB810103EBC10398787047B0
:100FA80008B5D0F8C80200F018FFFFF7A7FE08BD83
:100FB80008B5D0F8C80201F093F8FFF79FFE08BD06
:100FC80008B5D0F8C80201F065F8FFF797FE08BD2C
:100FD80008B5D0F8C80201F07AF808BD10B5044683
:100FE80011B101290FD010BD836923B9D4F8F002DB
:100FF80004F05FFDF7E7FFF78BFE094A136923F05A
:1010080006031361F2E7D0F8F00204F043FDA36988
:10101800002BE8D0024A136943F006031361E2E7A4
:1010280000ED00E000487047FC0200207047000017
:1010380008B500220F49104804F084FC70B90F4924
:101048000D4804F096FC60B90D490B4805F04EFCBC
:1010580050B9094804F0A7FC48B908BDFFF7B8F92A
:10106800EDE7FFF7B5F9EFE7FFF7B2F9F1E7FFF7BB
:10107800AFF9F2E75C00002010080020E000002033
:101088007C00002012230B80004870474800002095
:1010980004230B800048704744000020002393423B
:1010A8001ED200B510E00CF1370C01F813C0000196
:1010B8004FEA430C0CF1010C4FF0000E01F80CE064
:1010C8000133DBB2934209D24FEA107CB0F1204FD2
:1010D800E9D20CF1300C01F813C0E8E75DF804FB25
:1010E8007047000038B50B4BD3F89005D3F89445FA
:1010F800D3F89835C01800D138BD074D08222946C5
:10110800FFF7CCFF042205F110012046FFF7C6FFC8
:10111800F2E700BF0000FA0B2A00002008B51A23E6
:101128000B80FFF7DFFF014808BD00BF2800002043
:1011380008B50A4628B90549054805F056F903488F
:1011480008BD0249024805F050F9F8E7EC0A00200A
:101158004880000810B50A46034C2146034805F0AC
:1011680044F9204610BD00BFEC0A0020608000084A
:1011780008B50A4628B90549054805F036F903486F
:1011880008BD0249024805F030F9F8E7EC0A0020EA
:101198007480000808B50A4628B90549054805F0CD
:1011A80024F9034808BD0249024805F01EF9F8E78A
:1011B800EC0A00208080000800207047002070475B
:1011C8000020704770B505460C46094E014630466A
:1011D80005F0A5FB304605F0C9FB226829460548FD
:1011E80006F0E8F82268044B1A70002070BD00BFB2
:1011F80010080020F0140020EC0C002010B5064C5C
:1012080000220649204605F07CFB0549204605F0EA
:1012180086FB002010BD00BF10080020F00C002045
:10122800F0140020094BD3F8BC32D3F814320BB1B8
:101238000120704710B5054C0A460146204605F0C6
:1012480060FB204605F077FB10BD00BF10080020AA
:1012580070B50646154601F0DDFF044601F0DAFFD9
:10126800001BA8420AD2064B1B78002BF6D0054B70
:101278001B7833700020024B187000E0012070BD0D
:10128800EC0C0020F014002038B512F4804F43D045
:101298000468B4F8503091F800C04FEACC0E1EFA3A
:1012A80083F32344B3F80244C4F309048B69A342CB
:1012B80028D31B1B8B618B697BB9056835F82C30EB
:1012C8009BB223F4804323F0700383F4005343F468
:1012D800004343F0800325F82C3012F0400F0ED065
:1012E80002680D7832F825309BB223F4E04323F0EE
:1012F800700343F4004343F0C00322F8253024B9B7
:10130800204638BD00238B61D5E723460A89496901
:10131800006801F021FFF3E70468B4F8503091F851
:1013280000C04FEACC0E1EFA83F32344B3F80644F8
:10133800C4F309048B69A3422FD31B1B8B618B69F0
:101348007BB9056835F82C309BB223F4804323F031
:10135800700383F4005343F4004343F0800325F8FB
:101368002C3012F0400F0FD1026891F800C032F80B
:101378002C309BB223F4E04323F0700343F4004382
:1013880043F0C00322F82C30002CB9D023464A89F8
:101398004969006801F0E0FEB2E700238B61CEE7FF
:1013A800002869D030B587B0044690F8A9323BB11F
:1013B800032384F8A932206800F05FFF00231BE0B4
:1013C80080F8A832FFF7A8FCF2E75A1C02EB82016A
:1013D80004EBC1010120487002EB820104F83130AE
:1013E80004EBC1000021C17003EB830004EBC000D3
:1013F8008163C1630164D3B260688342E5D300238B
:1014080016E003EB830204EBC202002182F86911A3
:1014180082F8683182F86B11C2F87811C2F87C1131
:1014280003EB830204EBC202C2F880110133DBB282
:101438009842E6D8A4465CF8105BEE46BCE80F007C
:10144800AEE80F00DCF80030CEF80030231D0ECBDC
:10145800284600F01CFF002384F82430012384F878
:10146800A932E369012B02D0002007B030BD204625
:1014780000F0E4FE0020F8E70120704790F8A83259
:10148800012B0ED010B50446012380F8A83200685D
:1014980000F0EAFE206801F057FA002084F8A8025C
:1014A80010BD0220704770B505460C46164612F06E
:1014B800400F00F00A810268B2F850300978C8007D
:1014C80010FA83F31344B3F80224C2F30902A369A0
:1014D80093424DD99B1AA361A369002B64D1637809
:1014E800002B48D12A68B2F8503012FA83F303442B
:1014F800B3F80224C2F30902A3F80224B3F80224C1
:101508006FEA42426FEA524292B2A3F802242A6872
:101518006378002B3BD1B2F8503012FA83F322786B
:1015280003EBC203B3F80624C2F30902A3F80624A6
:10153800B3F806246FEA42426FEA524292B2A3F825
:10154800062421782846FFF759FC16F4804F40D02E
:101558002A68217832F821309BB223F4E04323F043
:10156800700343F4404343F0800322F8213030E015
:101578000023A361B0E7012BC9D12A68B2F8503023
:1015880012FA83F303440022A3F80224BFE7012BD5
:10159800D7D1B2F8503012FA83F3227803EBC203A2
:1015A8000022A3F80624CCE716F4804F0DD0286853
:1015B80030F821309BB223F4E04323F0700343F466
:1015C800404343F0800320F8213094F82430012B65
:1015D80012D02A68217832F821309BB223F4E043F4
:1015E80023F0400383F0300343F4004343F08003C7
:1015F80022F82130002070BD636913446361E369F8
:101608001344E361216A2369994224D3C91A2162E8
:101618006278002A44D12968B1F8502011FA82F280
:10162800217802EBC102B2F80214C1F30901A2F851
:1016380002143E2B1BD9580913F01F0F00D1013893
:10164800B2F8021489B2800280B2014341F4004129
:10165800A2F8021426E021B9002384F824301346A6
:10166800D6E7002384F8243023620B46D0E74BB931
:10167800B2F802146FEA41416FEA514189B2A2F807
:1016880002140FE0590813F0010F00D00131B2F82D
:10169800020480B2890289B20143A2F8021401E06F
:1016A800012A06D09BB222896169286801F05BF99A
:1016B8008FE72968B1F8502011FA82F2217802EBFD
:1016C800C10299B2A2F80214ECE70268B2F85030ED
:1016D8000978C80010FA83F31344B3F80624C2F358
:1016E8000902A36993424ED39B1AA361A369002BF5
:1016F80065D16378002B49D12A68B2F8503012FAC4
:1017080083F30344B3F80224C2F30902A3F80224C2
:10171800B3F802246FEA42426FEA524292B2A3F847
:1017280002242A686378002B3CD1B2F8503012FAB0
:1017380083F3227803EBC203B3F80624C2F3090249
:10174800A3F80624B3F806246FEA42426FEA52422D
:1017580092B2A3F8062421782846FFF74FFB16F427
:10176800804F7FF436AF2A68217832F821309BB257
:1017780023F4E04323F0700343F4404343F0800331
:1017880022F8213025E70023A361AFE7012BC8D158
:101798002A68B2F8503012FA83F303440022A3F8FF
:1017A8000224BEE7012BD6D1B2F8503012FA83F3E7
:1017B800227803EBC2030022A3F80624CBE716F431
:1017C800804F0DD1286830F821309BB223F4E043D4
:1017D80023F0700343F4404343F0800320F82130A2
:1017E80094F82430012B7FF4F4AE636913446361E9
:1017F800E3691344E361216A2369994224D3C91A2E
:10180800216229686278002A43D1B1F8502011FA80
:1018180082F2217802EBC102B2F80614C1F3090181
:10182800A2F806143E2B1BD9580913F01F0F00D13C
:101838000138B2F8061489B2800280B2014341F43B
:101848000041A2F8061426E021B9002384F82430C8
:101858001346D6E70023236284F824300B46D0E7EA
:101868004BB9B2F806146FEA41416FEA514189B2A7
:10187800A2F806140FE0590813F0010F00D0013147
:10188800B2F8060480B2890289B20143A2F80614AC
:1018980001E0012A06D09BB262896169286801F0DB
:1018A80062F896E6B1F8502011FA82F2217802EB3C
:1018B800C10299B2A2F80614EDE72DE9F0410546F8
:1018C8002868B0F8443013F4004F00F08382B0F871
:1018D8004440A3B214F00F0440F0DC8013F0100F62
:1018E80069D003889AB213F4006F40F0998012F41B
:1018F800004FE5D0038823F070031B051B0D43F050
:10190800800303802868B0F8503095F86821D20029
:1019180012FA83F30344B3F80634C3F30903C5F892
:1019280084318BB1D5F87C1171B1B5F86E2101F015
:1019380013FCD5F87C31D5F884211344C5F87C31E3
:1019480000212846FFF74EFA2A68138899B213F443
:10195800006FB5D101F44051B1F5405FB0D0B2F895
:10196800503012FA83F3B3F80624C2F30902A3F83D
:101978000624D5F878213E2A73D9510912F01F0F91
:1019880000D10139B3F8062492B2890289B20A4318
:1019980042F40042A3F806242A6813889BB223F471
:1019A800804323F0700383F4405343F4004343F02F
:1019B8008003138084E703889BB223F4E14323F078
:1019C80070036FEA43436FEA53439BB2038029686D
:1019D800B1F8503095F82820D20012FA83F30B445E
:1019E800B3F80234C3F309036B64EA6B1A44EA637D
:1019F80000212846FFF702FA95F82430002B3FF41F
:101A08005FAF2B6C002B7FF45BAF95F824302A680E
:101A180043F08003A2F84C30002385F824304FE7C8
:101A2800B0F8503095F86821D20012FA83F30344D5
:101A3800B3F80634C3F30903C5F88431B5F86E2149
:101A480005F52C7101F088FB2A68138823F07003D0
:101A58001B051B0D43F0800313802846FFF7BAF9D6
:101A68002EE74AB9B3F806246FEA42426FEA5242B7
:101A780092B2A3F806248FE7510812F0010F00D0A4
:101A88000131B3F8062490B28A0292B20243A3F855
:101A9800062481E730F824309EB213F4004F4AD16F
:101AA80016F0800F3FF40CAF621C02EB820105EBCD
:101AB800C101286830F824309BB223F4E14323F0B5
:101AC80070036FEA43436FEA53439BB220F8243014
:101AD800CB78012B00F0E98016F4807F40F0758107
:101AE8002868B0F85030621C02EB820215F83260A8
:101AF800F20012FA83F30344B3F80234C3F3090380
:101B080004EB840205EBC202126C9A4240F2458152
:101B180004EB840705EBC707D21A3A6404EB840286
:101B280005EBC202126C002A40F03E81314628467D
:101B3800FFF764F9C4E630F8243023F070031B057E
:101B48001B0D43F0800320F8243004EB8401C90006
:101B580001F5B47105EB010804EB840305EBC3033D
:101B680093F87431002B40D12868B0F8503004EB5A
:101B7800840205EBC20292F86821D20012FA83F3BC
:101B88000344B3F80674C7F3090717BB04EB8403CF
:101B980005EBC303D3F884213A44C3F88421D3F86E
:101BA8007C213A44C3F87C21D3F880313BB104EB63
:101BB800840305EBC303D3F878319F4270D204EB5A
:101BC800840305EBC30393F868112846FFF70AF965
:101BD80066E704EB840105EBC1013B46B1F86E21D1
:101BE800D1F87C1101F0B8FAD0E704EB840305EBD7
:101BF800C30393F86B31022B33D0296804EB8402BA
:101C080005EBC20292F8680131F820309BB223F448
:101C1800E04323F0700343F4004343F0C00321F88A
:101C28002030286892F8683130F8232012F4804F69
:101C38001ED0B0F85020DB0013FA82F30344B3F847
:101C48000274C7F30907002FA0D004EB840105EB49
:101C5800C1013B46B1F87021D1F87C1101F07CFA42
:101C680094E7324641462846FFF70EFB07468DE7C4
:101C7800B0F85020DB0013FA82F30344B3F806747B
:101C8800C7F30907002F81D004EB840105EBC101DC
:101C98003B46B1F87221D1F87C1101F05DFA75E785
:101CA8004146286800F071FEFAE604EB840305EB70
:101CB800C30300221A6493F83430FBB116F0400FC6
:101CC80037D04B781BBB2A68B2F8503012FA83F32E
:101CD800621C02EB820215F8322003EBC203B3F850
:101CE8000224C2F30902A3F80224B3F802246FEA1B
:101CF80042426FEA524292B2A3F80224013404EB42
:101D0800840415F834102846FFF778F8D8E5012B35
:101D1800F4D12A68B2F8503012FA83F3621C02EB4D
:101D2800820215F8322003EBC2030022A3F8022432
:101D3800E4E72A68631C03EB830305EBC3035B78C2
:101D4800D3B9B2F8503012FA83F3621C02EB820264
:101D580015F8322003EBC203B3F80624C2F30902D4
:101D6800A3F80624B3F806246FEA42426FEA524207
:101D780092B2A3F80624C1E7012BBFD1B2F85030C4
:101D880012FA83F3621C02EB820215F8322003EB8D
:101D9800C2030022A3F80624B0E704EB840205EB93
:101DA800C20200271764B9E604EB840205EBC202FD
:101DB800D66B1E44D663526C04EB840405EBC40452
:101DC8001344636400F0E1FD7AE532462846FFF7E4
:101DD8006AFB75E50020BDE8F08190F8A832012B78
:101DE8000DD010B50446012380F8A83280F82410DD
:101DF800006800F0A3FD002084F8A80210BD0220AE
:101E0800704710B50446006800F0A9FD10F4004FB3
:101E180023D110F4806F24D110F4804F32D110F404
:101E2800005F39D110F4805F40D110F4006F67D1A2
:101E380010F0800F40F0818010F4007F40F0AD80FA
:101E480010F4807F27D02268B2F844309BB223F484
:101E580080739BB2A2F844301DE02046FFF72DFDA9
:101E680019E02268B2F844309BB223F480639BB235
:101E7800A2F844302046FEF7D2FF00212046FFF7A3
:101E8800ACFF08E02268B2F844309BB223F48043E8
:101E98009BB2A2F8443010BD2268B2F844309BB21D
:101EA80023F400539BB2A2F84430F4E72268B2F856
:101EB80040309BB223F004039BB2A2F84030226862
:101EC800B2F840309BB223F008039BB2A2F840302E
:101ED80094F8E032012B0CD02046FEF7C3FF2268AD
:101EE800B2F844309BB223F480539BB2A2F844303A
:101EF800D1E7002184F8E0122046FFF76FF8EBE7FE
:101F08002268B2F840309BB243F00803A2F8403090
:101F18002268B2F844309BB223F400639BB2A2F863
:101F280044302268B2F840309BB243F00403A2F870
:101F380040302046FEF786FFADE72268B2F844300D
:101F48009BB223F080039BB2A2F8443094F8E032AD
:101F5800FBB92268B2F840309BB243F00403A2F800
:101F680040302268B2F840309BB243F00803A2F830
:101F78004030012184F8E0122368B3F85430C3F3E9
:101F88008D0303F03C03C4F8E4322046FFF726F83B
:101F980081E72046FEF756FF7DE72268B2F8443015
:101FA8009BB223F400739BB2A2F844302046FEF79C
:101FB80030FF70E710B50446084611F0800F25D1B0
:101FC80001F0070C0CEB8C01C90001F5B47E04EBA1
:101FD8000E010CEB8C0C04EBCC0C4FF0000E8CF8C3
:101FE80069E100F0070008700A61CB70022B1AD073
:101FF80094F8A832012B19D0012384F8A83220685C
:1020080000F056F9002084F8A80210BD01F0070C72
:102018000CF1010C0CEB8C0104EBC1014FF0010E2B
:1020280081F801E0DDE700230B71E1E70220ECE72E
:1020380010B504460B4611F0800F1FD101F00702BE
:1020480002EB8201C90001F5B471014402EB82027E
:1020580000EBC202002082F8690103F007030B704D
:1020680094F8A832012B13D0012384F8A8322068F1
:1020780000F003FB002084F8A80210BD01F007025D
:10208800013202EB820100EBC10101204870E4E754
:102098000220F2E710B501F0070C0CEB8C01C90027
:1020A80001F5B4710CEB8C0E00EBCE0ECEF87C2152
:1020B800CEF880310024CEF884418EF869418EF83C
:1020C80068C10144006800F060FC204610BD01F0C2
:1020D800070101EB810100EBC100D0F884017047D2
:1020E80038B501F0070404F1010C0CEB8C0104EB8A
:1020F800840E00EBCE0ECEF83C20CEF84030012204
:102108008EF84C20CEF848300025CEF8445000EB2D
:10211800C1035A7000F831401946006800F035FCD8
:10212800284638BD0B4601F0070241688A422AD882
:1021380010B5044613F0800F1DD103EB8301C900CD
:1021480001F5B471014403EB830300EBC3030020E2
:1021580083F8690101238B700A7094F8A832012B67
:1021680013D0012384F8A832206800F071FB002006
:1021780084F8A80210BD531C03EB830100EBC101D6
:1021880001204870E6E7012070470220F2E70B467D
:1021980001F00F014268914230D810B5044613F09F
:1021A800800F21D103F0070202EB8201C90001F57B
:1021B800B471014402EB820200EBC202002082F8F3
:1021C800690100228A7003F007030B7094F8A832A3
:1021D800012B15D0012384F8A832206800F05DFB9C
:1021E800002084F8A80210BD03F00702013202EBB8
:1021F800820100EBC10101204870E2E7012070472D
:102208000220F0E711F0800F0BD001F00701013137
:1022180001EB810100EBC10052B90273C3800020B9
:10222800704701EB8101C90001F5B4710844F3E777
:102238000122027303811B0C4381F0E70346026805
:102248000121C0F8E812002083F8E002B2F8543007
:102258009BB20B43A2F85430B2F854309BB243F00F
:102268000203A2F85430704703460020A3F8440044
:102278004BF68072A3F840207047B0F8403023F442
:102288007E535B045B0CA0F840300020704784B09C
:10229800844601A880E80E000123ACF840300020F5
:1022A800ACF84000ACF84400ACF8500004B07047FB
:1022B80010B5034691F800C030F82C2092B222F4F1
:1022C800EC4222F0700292B2C878032861D8DFE8A5
:1022D80000F0555C0258002048F2800E42EA0E02D7
:1022E80023F82C2091F800C033F82C2092B222F465
:1022F800E04222F070024CEA020242EA0E0223F89F
:102308002C200A7B002A40F0DC804A78002A51D031
:10231800B3F8502013FA82F20C7802EBC402B1F839
:1023280006C04FEA5C0C4FEA4C0CA2F800C40C78CB
:1023380033F8242012F0400F0CD033F8242092B246
:1023480022F4E04222F0700242F4004242F0C0025D
:1023580023F82420CA78012A1DD0097833F82120CF
:1023680092B222F4E04222F0400282F0200242F4CB
:10237800004242F0800223F8212017E142F4007263
:10238800AAE742F4C0620020A6E742F48062002077
:10239800A2E70120A0E7097833F8212092B222F4BD
:1023A800E04222F0400242F4004242F0800223F868
:1023B8002120FBE0B3F8502013FA82F20C7802EBEC
:1023C800C402B1F806C04FEA5C0C4FEA4C0CA2F804
:1023D80004C4B3F8502013FA82F20C7802EBC4025A
:1023E800B2F806C4CCF3090CA2F806C40C693E2C5A
:1023F80039D94FEA541E14F01F0F01D10EF1FF3ED8
:10240800B2F806C41FFA8CFC4FEA8E2E1FFA8EFE15
:102418004CEA0E0C4CF4004CA2F806C40C7833F8C5
:10242800242012F4804F0CD033F8242092B222F4E6
:10243800E04222F0700242F4404242F0800223F867
:102448002420097869BB33F8212092B222F4804213
:1024580022F0700282F4405242F4004242F08002BC
:1024680023F82120A2E04CB9B2F806446FEA4444AC
:102478006FEA5444A4B2A2F80644CFE74FEA540CDA
:1024880014F0010F01D00CF1010CB2F80644A4B20B
:102498004FEA8C2C1FFA8CFC44EA0C04A2F8064480
:1024A800BCE733F8212092B222F4804222F0700275
:1024B80082F4005242F4004242F0800223F82120C4
:1024C80074E0CA78022A72D00C7833F8242092B2C9
:1024D80022F4E24222F0700242F4004242F080020A
:1024E80023F82420B3F8502013FA82F291F800C0A0
:1024F80002EBCC02B1F808C04FEA5C0C4FEA4C0C76
:10250800A2F800C4B3F8502013FA82F291F800C080
:1025180002EBCC02B1F80AC04FEA5C0C4FEA4C0C53
:10252800A2F804C44A78002A50D10C7833F8242041
:1025380012F4804F0CD033F8242092B222F4E042F7
:1025480022F0700242F4404242F0800223F8242034
:102558000C7833F8242012F0400F0CD033F82420E4
:1025680092B222F4E04222F0700242F4004242F0B9
:10257800C00223F8242091F800C033F82C2092B22E
:1025880022F4804222F0700282F4405248F2800421
:10259800224323F82C20097833F8212092B222F420
:1025A800E04222F04002224323F8212010BD0C789B
:1025B80033F8242092B222F4E04222F0700242F46E
:1025C800014242F0800223F824208BE70C7833F88C
:1025D800242012F4804F0CD033F8242092B222F435
:1025E800E04222F0700242F4404242F0800223F8B6
:1025F80024200C7833F8242012F0400F0CD033F844
:10260800242092B222F4E04222F0700242F4004206
:1026180042F0C00223F82420CA78012A1ED00C7880
:1026280033F8242092B222F4E04222F0400282F0F1
:10263800200242F4004242F0800223F82420097864
:1026480033F8212092B222F4804222F0700242F440
:10265800004242F0800223F82120A7E70C7833F8E3
:10266800242092B222F4E04222F0400242F40042D6
:1026780042F0800223F82420E1E70B7B002B46D1AF
:102688004B7813B30A7830F8223013F0400F0CD08F
:1026980030F822309BB223F4E04323F0700343F474
:1026A800004343F0C00320F822300A7830F8223083
:1026B8009BB223F4E04323F0400343F4004343F088
:1026C800800320F82230002070470A7830F8223042
:1026D80013F4804F0CD030F822309BB223F4E0433F
:1026E80023F0700343F4404343F0800320F8223082
:1026F8000A7830F822309BB223F4804323F0700329
:1027080043F4004343F0800320F82230DBE74B78A2
:10271800002B4ED10A7830F8223013F4804F0CD0B9
:1027280030F822309BB223F4E04323F0700343F4E3
:10273800404343F0800320F822300A7830F82230F2
:1027480013F0400F0CD030F822309BB223F4E04352
:1027580023F0700343F4004343F0C00320F8223011
:102768000A7830F822309BB223F4E04323F0700358
:1027780043F4004343F0C00320F822300A7830F8CD
:1027880022309BB223F4804323F0700348F2800C7C
:1027980043EA0C0320F822300A7830F822309BB242
:1027A80023F4E04323F0400343EA0C0320F82230EB
:1027B80089E70A7830F8223013F4804F0CD030F8CB
:1027C80022309BB223F4E04323F0700343F44043E8
:1027D80043F0800320F822300A7830F8223013F0D2
:1027E800400F0CD030F822309BB223F4E04323F0A2
:1027F800700343F4004343F0C00320F822300A7802
:1028080030F822309BB223F4E04323F0700343F402
:10281800404343F0800320F822300A7830F8223011
:102828009BB223F4E04323F0400348F2800C43EAD0
:102838000C0320F822300A7830F822309BB223F4B7
:10284800804323F0700343EA0C0320F822303AE770
:102858004B788BB10A7830F822309BB223F4E043EE
:1028680023F0400383F0100343F4004343F0800354
:1028780020F82230002070470A7830F822309BB2C6
:1028880023F4804323F0700383F4805343F400431C
:1028980043F0800320F82230ECE70B7B002B4BD170
:1028A8004B7833B30A7830F8223013F0400F0CD04D
:1028B80030F822309BB223F4E04323F0700343F452
:1028C800004343F0C00320F82230CB78012B33D0EB
:1028D8000A7830F822309BB223F4E04323F0400317
:1028E80083F0200343F4004343F0800320F82230B0
:1028F80022E00A7830F8223013F4804F0CD030F8F8
:1029080022309BB223F4E04323F0700343F44043A6
:1029180043F0800320F822300A7830F822309BB246
:1029280023F4804323F0700383F4405343F40043BB
:1029380043F0800320F822300020704711B980232B
:10294800A0F84C3000207047B0F858306FEA434385
:102958006FEA53439BB2A0F8583000207047B0F894
:10296800440080B2704701335B08024402F580627C
:1029780008E0087891F801C040EA0C2022F8020B20
:102988000231013B002BF4D1704770B505460C4667
:102998004A78012A3BD00B7B002B40F0A6828B693A
:1029A8000A69934240F284829B1A8B61B5F85030D1
:1029B80015FA83F3217803EBC103B3F80614C1F3C6
:1029C8000901A3F806143E2A40F27682510912F052
:1029D8001F0F00D10139B3F8062492B2890289B2D7
:1029E8000A4342F40042A3F80624227835F822303C
:1029F8009BB223F4804323F0700383F4405343F4E1
:102A0800004343F0800325F82230002070BD8E6912
:102A180009698E4200D90E46237B73B3E378022BF3
:102A28004DD0236A9B1B2362237835F8231011F0BD
:102A3800400F00F0F581002A40F0E281B5F85020FF
:102A480015FA82F202EBC303B3F80624C2F30902B3
:102A5800A3F806243E2E40F2BA81710916F01F0F22
:102A680000D10139B3F8062492B2890289B20A4327
:102A780042F40042A3F80624CBE1B6B23346E2881A
:102A880061692846FFF76FFFB5F8503015FA83F3F0
:102A9800227803EBC203A3F80264227835F82230C7
:102AA8009BB223F4E04323F0400383F0300343F464
:102AB800004343F0800325F822300020A6E7236A6C
:102AC800994280F06681227835F822309BB223F44F
:102AD800E04323F0700343F4014343F0800325F8F7
:102AE8002230236A9B1B2362237835F8232012F0B7
:102AF800400F00F0A7806278B2BBB5F8502015FAF5
:102B080082F202EBC303B3F80624C2F30902A3F866
:102B180006243E2E0FD9710916F01F0F00D1013976
:102B2800B3F8062492B2890289B20A4342F40042F9
:102B3800A3F806241AE04EB9B3F806246FEA424215
:102B48006FEA524292B2A3F806240FE0720816F018
:102B5800010F00D00132B3F8061489B2920292B282
:102B68000A43A3F8062401E0012A30D0B3B26289EF
:102B780061692846FFF7F7FE636933446361236A96
:102B8800226993422DD99B1B23626378002B45D180
:102B9800B5F8503015FA83F3227803EBC203B3F883
:102BA8000224C2F30902A3F802243E2E1DD971099A
:102BB80016F01F0F00D10139B3F8022492B289022E
:102BC80089B20A4342F40042A3F8022428E0B5F887
:102BD800502015FA82F202EBC303B2B2A3F806241E
:102BE800C4E7002222621E46CFE74EB9B3F802249A
:102BF8006FEA42426FEA524292B2A3F802240FE00F
:102C0800720816F0010F00D00132B3F8021489B22D
:102C1800920292B20A43A3F8022401E0012B06D0E3
:102C2800B3B2228961692846FFF79DFE35E7B5F8FA
:102C3800503015FA83F3227803EBC203B2B2A3F83B
:102C48000224EDE76278B2BBB5F8502015FA82F29B
:102C580002EBC303B3F80224C2F30902A3F8022467
:102C68003E2E0FD9710916F01F0F00D10139B3F8A4
:102C7800022492B2890289B20A4342F40042A3F8BC
:102C880002241AE04EB9B3F802246FEA42426FEA0E
:102C9800524292B2A3F802240FE0720816F0010F14
:102CA80000D00132B3F8021489B2920292B20A43F8
:102CB800A3F8022401E0012A30D0B3B22289616965
:102CC8002846FFF750FE636933446361236A22692B
:102CD80093422DD99B1B23626378002B45D1B5F80D
:102CE800503015FA83F3227803EBC203B3F80624B5
:102CF800C2F30902A3F806243E2E1DD9710916F065
:102D08001F0F00D10139B3F8062492B2890289B2A3
:102D18000A4342F40042A3F8062428E0B5F85020FC
:102D280015FA82F202EBC303B2B2A3F80224C4E795
:102D3800002222621E46CFE74EB9B3F806246FEA96
:102D480042426FEA524292B2A3F806240FE0720898
:102D580016F0010F00D00132B3F8061489B29202BE
:102D680092B20A43A3F8062401E0012B06D0B3B2BD
:102D7800628961692846FFF7F6FD8EE6B5F850309E
:102D880015FA83F3227803EBC203B2B2A3F8062440
:102D9800EDE7217835F8212092B222F4E24222F0C0
:102DA800700242F4004242F0800225F82120B5F872
:102DB800502015FA82F2217802EBC1029BB2A2F8E8
:102DC8000234228961692846FFF7CDFD65E64EB9D0
:102DD800B3F806246FEA42426FEA524292B2A3F86D
:102DE800062416E0720816F0010F00D00132B3F87D
:102DF800061489B2920292B20A43A3F8062408E0A4
:102E0800B5F8502015FA82F202EBC303B2B2A3F868
:102E18000624B3B2628961692846FFF7A4FD3CE63F
:102E2800B2BBB5F8502015FA82F202EBC303B3F82F
:102E38000224C2F30902A3F802243E2E0FD9710915
:102E480016F01F0F00D10139B3F8022492B289029B
:102E580089B20A4342F40042A3F8022421E04EB9A1
:102E6800B3F802246FEA42426FEA524292B2A3F8E0
:102E7800022416E0720816F0010F00D00132B3F8F0
:102E8800021489B2920292B20A43A3F8022408E01B
:102E9800B5F8502015FA82F202EBC303B2B2A3F8D8
:102EA8000224B3B2228961692846FFF75CFDF4E584
:102EB80000228A611A4679E54AB9B3F806246FEA0E
:102EC80042426FEA524292B2A3F806248DE55108B5
:102ED80012F0010F00D00131B3F8062492B2890232
:102EE80089B20A43A3F806247FE5CB78022B4DD09C
:102EF800012B40F02F8189692369994240F2E680CD
:102F0800C91AA161F2B9B5F8502015FA82F22178F0
:102F180002EBC102B2F80214C1F30901A2F80214CB
:102F28003E2B40F2D780580913F01F0F00D101380B
:102F3800B2F8021489B2800280B2014341F4004120
:102F4800A2F802146278002A40F0F680B5F8502002
:102F580015FA82F2217802EBC102B2F80614C1F325
:102F68000901A2F806143E2B40F2CD80590913F04E
:102F78001F0F00D10139B2F806349BB2890289B219
:102F88000B4343F40043A2F806342EE5F2B9B0F837
:102F9800503010FA83F30A7803EBC203B3F8022423
:102FA800C2F30902A3F802240A693E2A31D9510959
:102FB80012F01F0F00D10139B3F8022492B289022E
:102FC80089B20A4342F40042A3F802246378002B32
:102FD80051D1B5F8503015FA83F3227803EBC203C8
:102FE800B3F80624C2F30902A3F8062422693E2A8C
:102FF80028D9510912F01F0F00D10139B3F806245E
:1030080092B2890289B20A4342F40042A3F8062424
:1030180033E04AB9B3F802246FEA42426FEA5242F7
:1030280092B2A3F80224D1E7510812F0010F00D0A0
:103038000131B3F8022490B28A0292B20243A3F893
:103048000224C3E74AB9B3F806246FEA42426FEA9A
:10305800524292B2A3F806240FE0510812F0010F71
:1030680000D00131B3F8062490B28A0292B202432A
:10307800A3F8062401E0012B1DD0E369002B3FF4DF
:10308800B4AC227835F8221044F2400303EA010078
:103098008B4302D000287FF4A8AC35F822309BB2CD
:1030A80023F4E04323F0700343F4004343F0C003E8
:1030B80025F8223099E4B5F8503015FA83F32278D0
:1030C80003EBC203228AA3F80624D6E70023A361F0
:1030D8000B4617E74BB9B2F802146FEA41416FEAA1
:1030E800514189B2A2F802142CE7590813F0010FD4
:1030F80000D00131B2F8020480B2890289B20143DA
:10310800A2F802141EE74BB9B2F806346FEA43433B
:103118006FEA53439BB2A2F8063466E4590813F0E9
:10312800010F00D00131B2F8063498B28B029BB27D
:103138000343A2F8063458E4012A7FF456ACB5F8E4
:10314800502015FA82F2217802EBC1029BB2A2F854
:1031580006344AE4012059E410B45C08024402F53C
:10316800806207E032F8020B0870C0F3072048704D
:103178000231013C002CF5D113F0010F01D0138866
:103188000B705DF8044B7047104B1B780BB901208E
:10319800704710B504464FF47A70B0FBF3F30C4A4D
:1031A8001068B0FBF3F001F05DFF68B9072C01D996
:1031B80001200AE0002221464FF0FF3001F03EFFD7
:1031C800044B1C60002000E0012010BD900000208E
:1031D800980000209400002010B5042001F01CFF86
:1031E80002F044FB0720FFF7CFFF10B1012420466F
:1031F80010BD0446FDF7A6FCF9E70000034B1B7859
:10320800034A11680B441360704700BF9000002008
:10321800F01C0020014B1868704700BFF01C00200C
:1032280038B50446FFF7F6FF0546B4F1FF3F02D074
:10323800044B1B781C44FFF7EDFF401BA042FAD358
:1032480038BD00BF9000002003689A6912F0020F91
:1032580001D000229A6203689A6912F0010F03D123
:103268009A6942F001029A61704710B4019CC1F357
:10327800090141EA02411943214321F00041026852
:103288005368640D04F4806444F07F7444F4583443
:1032980044F47F7444F0030423EA04030B435360AB
:1032A8005DF8044B70472DE9F041044603689E69B8
:1032B80016F010067CD00D4690461022DA610026E2
:1032C80037462368986910F0200F30D17FBBB5F1DD
:1032D800FF3FF6D0FFF79EFFA0EB0800A84201D8F9
:1032E800002DEED121684B6803F4804394F8422006
:1032F800D2B2886910F4004F02D00BB9202A0ED13F
:1033080023689B6913F0200FDBD1FFF783FFA0EB45
:1033180008001928F4D946F020060127D1E74B68A0
:1033280043F480434B60FFF775FF8046E8E70FB929
:103338002022DA6146F0040601252268936913F415
:10334800807F05D046F001064FF48071D1610125D8
:1033580013F4806F06D046F0080622684FF48061A7
:10336800D161012513F4007F24D046F002062368BA
:103378004FF40072DA6101252046FFF765FF2268E5
:10338800536823F0FF7323F48B3323F4FF7323F084
:1033980001035360636C33436364202384F8413032
:1033A800002384F8423084F840302846BDE8F08194
:1033B8000025C2E7002DF8D0DEE770B504460D46BB
:1033C800164623689B6913F0020F22D1324629461C
:1033D8002046FFF768FFF0B9B5F1FF3FF1D0FFF7DE
:1033E80019FF801BA84201D8002DEAD123689B69E8
:1033F80013F0020FE5D1636C43F0200363642023CC
:1034080084F84130002384F8423084F840300120A9
:1034180000E0002070BD0120FCE72DE9F0410546E1
:103428000F46164698462C68A46937EA04040CBF70
:1034380001240024B44222D1B8F1FF3FF3D0FFF7B2
:10344800E9FE069BC01A404502D8B8F1000FEAD140
:103458002B689B6937EA03030CBF01230023B3429F
:10346800E1D16B6C43F020036B64202385F8413075
:10347800002385F8423085F84030012000E0002024
:10348800BDE8F08170B504460D46164604E0236891
:103498009B6913F0200F12D023689B6913F0200F4B
:1034A8001BD1324629462046FFF7FDFEB8B9FFF783
:1034B800B1FE801BA842EAD8002DEDD1E7E7636C86
:1034C80043F020036364202384F84130002384F808
:1034D800423084F84030012000E0002070BD012017
:1034E800FCE7002859D010B5044690F84130002B6D
:1034F80043D0242384F841302268136823F0010361
:1035080013606368226823F070631361226893680C
:1035180023F400439360E368012B33D0A368226847
:1035280043F404439360E368022B31D02268536864
:1035380043F0007343F4004353602268D36823F4D4
:103548000043D360236962691343A169226843EA8F
:103558000123D360E369216A22680B431360226860
:10356800136843F00103136000206064202384F88B
:103578004130206384F8420010BD80F84030FDF7E8
:10358800FDFAB6E7A368226843F400439360CAE7EC
:1035980023684FF400625A60C8E7012070470000B2
:1035A8002DE9F04782B00F460A9E90F84110C9B243
:1035B800202940F0A38004469046994690F8403070
:1035C800012B00F09F804FF0010A80F840A0FFF720
:1035D80021FE05460090192352464FF4004120462B
:1035E800FFF71BFF002840F08F80212384F841302B
:1035F800102384F8423000236364C4F82480A4F8BC
:103608002A906363638D9BB2FF2B0AD9FF22228520
:10361800414B00934FF0807339462046FFF725FE53
:1036280018E0628D92B222853B4B00934FF00073F5
:10363800D2B239462046FFF718FE0BE0628D92B2EF
:103648002285002300934FF00073D2B239462046FA
:10365800FFF70BFE638D9BB2002B33D02A46314611
:103668002046FFF7AAFE002850D1626A2368127824
:103678009A62636A01336362638D9BB2013B9BB2BA
:103688006385238D013B9BB22385628D92B2002A0C
:10369800E0D0002BDED10095334600228021204661
:1036A800FFF7BBFEA0BB638D9BB2FF2BC6D9FF22E1
:1036B8002285002300934FF0807339462046FFF798
:1036C800D4FDC7E72A4631462046FFF7DBFE08BB94
:1036D80023682022DA6121684B6823F0FF7323F402
:1036E8008B3323F4FF7323F001034B6084F84120EC
:1036F800002384F8423084F8403000E0022002B011
:10370800BDE8F0870220FAE70120F8E70120F6E794
:103718000120F4E70120F2E7002000802DE9F043C2
:1037280085B01D460023039390F84130DBB2202B6F
:1037380040F09E8006468946904603689B6913F4CC
:10374800004F40F0978090F84030012B00F09480B3
:10375800012380F84030242380F84130002343645B
:1037680044E0C9F3090343F0007343F4005344E011
:1037780033689C69C4F340149B69C3F30013C4B94C
:10378800BBB9B5F1FF3FF3D0FFF744FDC01BA8421A
:1037980001D8002DECD1202386F84130736C43F01A
:1037A80020037364002386F84030012005B0BDE88B
:1037B800F08333689B6913F0100F2BD000972B46CA
:1037C800002220213046FFF728FE002858D1336810
:1037D8001022DA6133682022DA61039B43452AD03C
:1037E800039B01330393039B434535D2F368012BB5
:1037F800B7D0C9F3090343F4205332685360FFF785
:1038080009FD074633689C69C4F340149B69C3F3F8
:103818000013B4E700972B46002220213046FFF71B
:10382800FCFD58BB32682023D36186F84130002361
:1038380086F84030BAE73268536843F480435360EF
:1038480000972B46002220213046FFF7E6FDC8B935
:1038580033682022DA61C3E7202386F84130736C8D
:1038680043F020037364002386F8403001209DE76D
:1038780002209BE7022099E7022097E7012095E7BD
:10388800012093E7012091E7034690F84120D2B246
:10389800202A23D190F84020012A21D0012280F843
:1038A8004020242280F841200068026822F00102AA
:1038B80002601868026822F4805202601868026880
:1038C8001143016019680A6842F001020A60202267
:1038D80083F84120002083F8400070470220704799
:1038E80002207047034690F84120D2B2202A21D105
:1038F80090F84020012A1FD0012280F8402024227D
:1039080080F841200068026822F00102026018680D
:10391800026822F4706242EA0122026019680A68A9
:1039280042F001020A60202283F84120002083F837
:103938004000704702207047022070471F4AD36832
:1039480003F00303D268C2F303120132022B0DD035
:10395800032B15D0012B1DD00020184BDB68C3F3B7
:10396800416301335B00B0FBF3F070471448B0FBD0
:10397800F2F0124BDB68C3F3062303FB00F0ECE71D
:103988001048B0FBF2F00D4BDB68C3F3062303FBD2
:1039980000F0E2E7094B1B6813F0080F08D1074B4A
:1039A800D3F89430C3F30323074A52F82300D4E72B
:1039B800024B1B68C3F30313F6E700BF0010024075
:1039C8000024F4000048E801B880000830B583B04E
:1039D8000446214B9B6D13F0805F0CD001F068FA10
:1039E800D0B1B0F5007F17D0802C2CD82DD0702CFA
:1039F8002DD0002117E0184DAB6D43F08053AB6517
:103A0800AB6D03F080530193019B01F051FAAB6D4C
:103A180023F08053AB65E3E7802C03D9A02C10D9A1
:103A2800022100E000210D4A136823F00F030B4325
:103A38001360136803F00F038B420AD1002003B010
:103A480030BD0121EFE70321EDE70221EBE701217A
:103A5800E9E70120F3E700BF001002400020024020
:103A6800314A9368D26802F0030213F00C030AD0BB
:103A78000C2B06D0042B1FD0082B20D00020014689
:103A880010E0012AF6D1284A126812F0080F0CD16A
:103A9800254AD2F89420C2F30322244951F822106F
:103AA80043B100200C2B0DD070471F4A1268C2F397
:103AB8000312F2E70846F5E71D480021F2E71D4822
:103AC8000021EFE7184BDA6802F00302DB68C3F362
:103AD80003130133022A0AD0032A1AD0B1FBF3F1E7
:103AE800114BD868C0F3062001FB00F008E010482D
:103AF800B0FBF3F00C4BDB68C3F3062303FB00F0C9
:103B0800094BDB68C3F3416301335B00B0FBF3F09F
:103B1800CAE70848B0FBF3F0034BDB68C3F306239E
:103B280003FB00F0ECE700BF00100240B88000087B
:103B38000024F4000048E80108B5FFF791FF044BA2
:103B48009B68C3F30313034AD35CD84008BD00BF86
:103B58000010024000810008002800F0B683F0B58C
:103B680083B004469E4B9D6805F00C05DE6806F0A0
:103B78000306036813F0100F56D00DB30C2D1DD09B
:103B8800E369002B00F0BC80954A136843F00103F9
:103B98001360FFF73FFB0746914B1B6813F0020FBA
:103BA80040F09B80FFF736FBC01B0228F4D98C4BF2
:103BB8001B6813F0020FEFD1032091E3012EDFD130
:103BC800874B1B6813F0020F03D0E369002B00F04A
:103BD8007E83606A824B1B6813F0080F57D0804BB6
:103BE8001B6803F0F003984258D87D4B1A6842F0DE
:103BF80008021A601A6822F0F002616A0A431A6021
:103C08005A6822F47F42216A42EA01225A60002D52
:103C18005CD0FFF791FF734B1860734B1868FFF780
:103C2800B3FA002840F05C83236813F0010F00F01A
:103C38008B80082D7FD00C2D7BD06368B3F5803F37
:103C480000F0A780B3F5A02F00F0A980644B1A6894
:103C580022F480321A601A6822F480221A6063689B
:103C6800002B00F0A980FFF7D5FA07465C4B1B68CC
:103C780013F4003F68D1FFF7CDFAC01B6428F5D9CB
:103C8800574B1B6813F4003FF0D1032028E3544B33
:103C9800D3F894301B0903F0F003A4E7FFF796FE6E
:103CA800002840F016834E4B1A6842F008021A604A
:103CB8001A6822F0F002616A0A431A605A6822F40C
:103CC8007F42216A42EA01225A60A2E7606AFFF74E
:103CD8007DFE00289DD0012002E3414B1A6842F086
:103CE80008021A601A6822F0F002616A0A431A6030
:103CF8005A6822F47F42216A42EA01225A6093E715
:103D0800374A136823F001031360FFF783FA074665
:103D1800334B1B6813F0020F86D0FFF77BFAC01BEA
:103D28000228F5D92E4B1B6813F0020FF0D00320A0
:103D3800D6E2032E81D12A4B1B6813F4003F03D02F
:103D48006368002B00F0C782236813F0020F60D06D
:103D5800042D4DD00C2D49D0E368002B00F0908045
:103D68001F4A136843F480731360FFF753FA05463C
:103D78001B4B1B6813F4806F79D1FFF74BFA401B7C
:103D88000228F5D9164B1B6813F4806FF0D1032075
:103D9800A6E2134A136843F4803313605FE703F124
:103DA8008043A3F53C331A6842F480221A601A68EB
:103DB80042F480321A6052E7FFF72CFA0746084BA4
:103DC8001B6813F4003FBFD0FFF724FAC01B642818
:103DD800F5D9034B1B6813F4003FF0D003207FE2B2
:103DE800001002409800002094000020022EB3D159
:103DF800A94B1B6813F4806F03D0E368002B00F015
:103E08006C82A54A536823F0FE43216943EA0163A3
:103E18005360236813F0080F70D06369002B50D0EB
:103E2800A369002B45D19C4AD2F8943023F01003A3
:103E3800C2F89430984AD2F8943043F00103C2F89B
:103E48009430FFF7E7F90546934BD3F8943013F015
:103E5800020F53D1FFF7DEF9401B0728F4D98E4B28
:103E6800D3F8943013F0020FEED1032038E28A4AD7
:103E7800536823F0FE43216943EA01635360C8E7AE
:103E8800854A136823F480731360FFF7C3F9054666
:103E9800814B1B6813F4806FBBD0FFF7BBF9401B45
:103EA8000228F5D97C4B1B6813F4806FF0D00320EF
:103EB80016E2794AD2F8943043F01003C2F89430ED
:103EC800B8E7754AD2F8943023F00103C2F8943069
:103ED800FFF7A0F90546704BD3F8943013F0020FA2
:103EE8000CD0FFF797F9401B0728F4D96A4BD3F891
:103EF800943013F0020FEED00320F1E1236813F0A1
:103F0800040F00F0F080644B9B6D13F0805F24D1A8
:103F1800614B9A6D42F080529A659B6D03F0805315
:103F28000193019B01255D4B1B6813F4807F16D01C
:103F3800A36813F0010F33D013F0040F28D0564BA9
:103F4800D3F8902042F00402C3F89020D3F89020D0
:103F580042F00102C3F890202FE00025E3E74F4A22
:103F6800136843F480731360FFF754F906464B4B0C
:103F78001B6813F4807FDBD1FFF74CF9801B022804
:103F8800F5D9464B1B6813F4807FF0D10320A7E1D5
:103F9800414AD2F8903043F00103C2F890300CE067
:103FA8003D4BD3F8902022F00102C3F89020D3F8BB
:103FB800902022F00402C3F89020A368002B53D06D
:103FC800FFF728F90646344BD3F8903013F0020F68
:103FD8000ED1FFF71FF9801B41F288339842F2D9BE
:103FE8002D4BD3F8903013F0020FECD1032077E17A
:103FF800A36813F0800F1BD0274AD2F8903043F003
:104008008003C2F89030244BD3F8903013F4006F3B
:1040180068D1FFF7FFF8801B41F288339842F2D944
:104028001D4BD3F8903013F4006FECD1032057E107
:10403800194AD2F8903023F08003C2F89030164B1A
:10404800D3F8903013F4006F4CD0FFF7E3F8801BDF
:1040580041F288339842F2D90F4BD3F8903013F4D9
:10406800006FECD003203BE1FFF7D4F806460A4B7B
:10407800D3F8903013F0020F12D0FFF7CBF8801B63
:1040880041F288339842F2D9034BD3F8903013F0B9
:10409800020FECD0032023E1001002400070004022
:1040A800974BD3F8903013F0800F1BD0944AD2F876
:1040B800903023F08003C2F89030914BD3F89030C1
:1040C80013F4006F0ED0FFF7A5F8801B41F2883378
:1040D8009842F2D98A4BD3F8903013F4006FECD0A1
:1040E8000320FDE015BB236813F0200F41D0A36A1D
:1040F80013B3834AD2F8983043F00103C2F89830DA
:10410800FFF788F805467E4BD3F8983013F0020F76
:104118002FD1FFF77FF8401B0228F4D9784BD3F84A
:10412800983013F0020FEED10320D9E0744A936D52
:1041380023F080539365D6E7714AD2F8983023F07C
:104148000103C2F89830FFF765F805466C4BD3F8C1
:10415800983013F0020F0CD0FFF75CF8401B0228D0
:10416800F4D9674BD3F8983013F0020FEED0032040
:10417800B6E0E36A002B00F0B280614A926802F070
:104188000C020C2A73D0022B18D05D4A136823F056
:1041980080731360FFF73EF80446594B1B6813F011
:1041A800007F5DD0FFF736F8001B0228F5D9544B85
:1041B8001B6813F0007FF0D0032091E0504A136889
:1041C80023F080731360FFF725F805464C4B1B68F6
:1041D80013F0007F0BD0FFF71DF8401B0228F5D91C
:1041E800474B1B6813F0007FF0D0032078E0444A67
:1041F800D36844491940236B606B013843EA0013C4
:10420800A06B43EA0023206C4008013843EA40537E
:10421800606C4008013843EA4063E06B43EAC063DE
:104228001943D160136843F080731360D36843F077
:104238008073D360FEF7EEFF0446314B1B6813F022
:10424800007F0BD1FEF7E6FF001B0228F5D92C4BA7
:104258001B6813F0007FF0D1032041E000203FE00D
:10426800274AD168284B0B40D360002038E0012B47
:1042780038D0234BDB6803F00301226B914233D122
:1042880003F0F002616B0139B2EB011F2ED103F488
:10429800FE42A16BB2EB012F2AD103F07842E16B09
:1042A800B2EBC16F26D103F4C001226C5208013A67
:1042B800B1EB425F20D103F0C063626C5208013A4F
:1042C800B3EB426F1AD100200AE0012070470120A9
:1042D80006E0012004E0012002E0012000E00020C7
:1042E80003B0F0BD0120FBE70120F9E70120F7E763
:1042F8000120F5E70120F3E70120F1E70120EFE7CE
:10430800001002400C809F01FCFFEEFE002800F028
:10431800E980F8B50D460446764B1B6803F00F0399
:104328008B420BD2734A136823F00F030B431360BD
:10433800136803F00F038B4240F0D680236813F014
:10434800020F0CD0A2686C4B9B6803F0F0039A42F2
:1043580005D969498B6823F0F0031A438A602368FA
:1043680013F0010F76D06368032B0DD0022B25D0F4
:10437800002B3CD103F1804303F504331B6813F091
:10438800020F21D10120A6E05B4B1B6813F0007FD0
:1043980001D101209FE0FFF7D1FA584B98422DD95F
:1043A800554B9B6813F0F00F2AD1534A936823F0BA
:1043B800F00343F080039360802724E04E4B1B6892
:1043C80013F4003F00F09280FFF74AFB4B4B9842F2
:1043D80018D9494B9B6813F0F00F37D1464A9368B8
:1043E80023F0F00343F08003936080270BE0424BF7
:1043F8001B6813F4806FE7D101206CE0002702E00E
:10440800002700E000273C4A936823F00303616813
:104418000B439360FEF7FEFE0646374B9B6803F09E
:104428000C036268B3EB820F12D0FEF7F3FE801B19
:1044380041F288339842F0D92F4B9B6803F00C0364
:104448006268B3EB820FE8D0032044E00027DAE784
:10445800002F41D1236813F0020F0CD0A268264B1D
:104468009B6803F0F0039A4205D223498B6823F036
:10447800F0031A438A601F4B1B6803F00F03AB421B
:104488000AD91C4A136823F00F032B4313601368DF
:1044980003F00F03AB422BD1236813F0040F06D0AF
:1044A800154A936823F4E063E1680B43936023683B
:1044B80013F0080F07D0104A936823F4605321695A
:1044C80043EAC1039360FFF737FB0D4B18600D4BB0
:1044D8001868FEF759FEF8BD074A936823F0F00301
:1044E8009360B7E7012070470120F4E70120F2E765
:1044F8000120F0E7002002400010024000B4C4048C
:10450800980000209400002008B5FFF715FB044B25
:104518009B68C3F30223034AD35CD84008BD00BF9D
:1045280000100240F880000808B5FFF705FB044BAF
:104538009B68C3F3C223034AD35CD84008BD00BFBD
:1045480000100240F880000870B504460E46036863
:10455800022B51D0032B56D0012B01D0012070BD66
:104568002F4B1B6813F0020F54D02D4A136823F009
:1045780080531360FEF74EFE0546294B1B6813F067
:10458800005F09D0FEF746FE431B022BF5D9244BEA
:104598001B6813F0005F3FD186B921484369214A5F
:1045A8001A40A168E368DB0643EA01236168013920
:1045B80043EA011321680B431A434261184A1368FE
:1045C80043F080531360FEF725FE0546144B1B6825
:1045D80013F0005F09D1FEF71DFE431B022BF5D92E
:1045E8000F4B1B6813F0005F18D00D4A53692169FF
:1045F8000B4353610020B2E7094B1B6813F4806F2B
:10460800B3D10120ABE7064B1B6813F4C02FACD124
:104618000120A4E70120A2E70320A0E703209EE7EA
:10462800001002400C80FF0770B504460E46036870
:10463800022B52D0032B57D0012B01D0012070BD83
:10464800454B1B6813F0020F7FD0434A136823F0D1
:1046580080631360FEF7DEFD05463F4B1B6813F0D1
:10466800006F09D0FEF7D6FD431B022BF5D93A4B54
:104678001B6813F0006F6AD1002E3CD136480369DD
:10468800364A1A40A168E368DB0643EA01236168F9
:10469800013943EA011321680B431A4302612E4A88
:1046A800136843F080631360FEF7B4FD05462A4B98
:1046B8001B6813F0006F09D1FEF7ACFD431B022BFA
:1046C800F5D9254B1B6813F0006F42D0224A1369B5
:1046D800A1690B4313610020B1E71F4B1B6813F45A
:1046E800806FB2D10120AAE71B4B1B6813F4C02FBF
:1046F800ABD10120A3E7012E13D017480369184A4C
:104708001A40A16863695B08013B5B0643EA012321
:104718006168013943EA011321680B431A430261B6
:10472800BDE70D4803690F4A1A40A16823695B0871
:10473800013B5B0543EA01236168013943EA011340
:1047480021680B431A430261A9E7012077E7032098
:1047580075E7032073E700BF001002400C80FF07D5
:104768000C80FFF90C809FFF2DE9F04182B00446D0
:10477800036813F4006F34D0C36E402B1FD00BD8DE
:1047880023B3202B05D100212030FFF7DDFE06469C
:1047980021E001273E4626E0602B20D0802B0BD15C
:1047A8000026694AD2F89C3023F0E003E16E0B43FF
:1047B800C2F89C30002716E001273E4613E0624A03
:1047C800D36843F48033D3600026EAE7002104303D
:1047D800FFF72AFF0646002EE3D0374603E00026FF
:1047E800DFE700273E46236813F4805F33D0236F4A
:1047F800B3F5007F22D00DD833B3B3F5807F06D14F
:10480800002104F12000FFF79FFE064608E001277B
:104818003E4620E0B3F5407F02D0B3F5806F0AD161
:10482800C6B9494AD2F89C3023F4E063216F0B43A0
:10483800C2F89C300FE001273E460CE0424AD3689C
:1048480043F48033D360EBE70021201DFFF7ECFE33
:104858000646E5E73746236813F4003F7DD03A4B18
:104868009B6D13F0805F4FD1374B9A6D42F08052A9
:104878009A659B6D03F080530193019B4FF00108EB
:10488800324A136843F480731360FEF7C3FC05468D
:104898002E4B1B6813F4807F09D1FEF7BBFC401B2D
:1048A8000228F5D9294B1B6813F4807F48D0002EC5
:1048B8004ED1254BD3F8903013F4407316D0D4F86A
:1048C80090209A4212D0204AD2F8903023F44073B4
:1048D800D2F8901041F48031C2F89010D2F89010BC
:1048E80021F48031C2F89010C2F8903013F0010F13
:1048F8000DD1154AD2F8903023F44073D4F89010B3
:104908000B43C2F8903024E04FF00008B8E7FEF7F8
:1049180081FC05460C4BD3F8903013F0020FE8D118
:10492800FEF778FC401B41F288339842F2D9064BD7
:10493800D3F8903013F0020FDBD103273E4608E08E
:1049480003273E4605E000BF00100240007000400B
:104958003746B8F1000F40F05181236813F0010F7A
:1049680008D0B84AD2F8883023F00303616B0B43B0
:10497800C2F88830236813F0020F08D0B14AD2F881
:10498800883023F00C03A16B0B43C2F888302368EE
:1049980013F0040F08D0AB4AD2F8883023F0300364
:1049A800E16B0B43C2F88830236813F0080F08D076
:1049B800A44AD2F8883023F0C003216C0B43C2F814
:1049C8008830236813F0100F08D09E4AD2F8883038
:1049D80023F44073616C0B43C2F88830236813F0EA
:1049E800200F08D0974AD2F8883023F44063A16C8E
:1049F8000B43C2F88830236813F4007F08D0914A2B
:104A0800D2F8883023F44023E16D0B43C2F8883094
:104A1800236813F4806F08D08A4AD2F8883023F4C8
:104A28004013216E0B43C2F88830236813F4800FBB
:104A380008D0844AD2F8883023F44003616E0B43CF
:104A4800C2F88830236813F0007F0CD0A36EB3F14E
:104A5800807F00F0D980B3F1007F00F0E580002B63
:104A680000F0D7800127236813F0400F08D0754A5B
:104A7800D2F8883023F44053E16C0B43C2F88830F5
:104A8800236813F0800F08D06E4AD2F8883023F4D8
:104A98004043216D0B43C2F88830236813F4807FAC
:104AA80008D0684AD2F8883023F44033616D0B434C
:104AB800C2F88830236813F4801F08D0614AD2F8FE
:104AC8009C3023F00303A16D0B43C2F89C3023688C
:104AD80013F4005F11D05B4AD2F8883023F04063AA
:104AE800616F0B43C2F88830636FB3F1006F00F059
:104AF800A380B3F1806F00F0A780236813F4002F20
:104B08001FD0A36FB3F5804F00F0A7804D4AD2F8AD
:104B1800881021F040610B43C2F88830D2F89C30ED
:104B280023F48043C2F89C30A36FB3F1806F00F088
:104B38009C80B3F1006F00F0A180B3F5804F00F0C6
:104B4800A380236813F4802F11D03E4AD2F888300E
:104B580023F04063E16F0B43C2F88830E36FB3F191
:104B6800006F00F09780B3F1806F00F098802368A1
:104B780013F4804F0FD0334AD2F8883023F04053D3
:104B8800D4F880100B43C2F88830D4F88030B3F1E1
:104B9800805F00F08D80236813F4803F09D0294A94
:104BA800D2F89C3023F00403D4F884100B43C2F8E5
:104BB8009C30236813F4001F09D0224AD2F89C3095
:104BC80023F01803D4F888100B43C2F89C302368EC
:104BD80013F0807F0ED01B4AD2F89C3023F4401388
:104BE800D4F88C100B43C2F89C30D4F88C30B3F551
:104BF800001F66D0384602B0BDE8F081114A936DB7
:104C080023F080539365A8E60E4AD36843F48013D3
:104C1800D3607EB90B4AD2F8883023F04073A16E76
:104C28000B43C2F888301EE70021201DFFF7FCFC6B
:104C38000646EEE7374616E7D36843F48013D36099
:104C48005BE700BF001002400121201DFFF7ECFCCC
:104C580000283FF452AF07464FE71C4AD2F89C3071
:104C680043F48043C2F89C305EE70121201DFFF722
:104C7800DBFC00283FF465AF074662E7134AD368B8
:104C880043F48013D3605CE7104AD36843F480335D
:104C9800D36056E7D36843F48013D36067E70121F4
:104CA800201DFFF7C1FC00283FF461AF07465EE70F
:104CB8000221201DFFF7B8FC00283FF46CAF07461F
:104CC80069E7D36843F48013D36093E70010024088
:104CD800F0B5002365E085685E000324B44025EA4A
:104CE8000405CC68B4402C438460456825EA0C056B
:104CF8004C68C4F300149C402C43446062E0DD0817
:104D0800083550F8254003F0070C4FEA8C0C4FF09B
:104D18000F0E0EFA0CFE24EA0E0E0C6904FA0CF4BF
:104D280044EA0E0440F8254063E0062400E000242D
:104D380004FA0EF42C43564D0CF1180C45F82C408F
:104D48002D68D44325EA02064F6817F4801F01D066
:104D580042EA05064E4D2E606D6804EA05064F6866
:104D680017F4001F01D042EA0506494D6E60D5F8D8
:104D7800845004EA05064F6817F4003F01D042EA60
:104D88000506434DC5F88460D5F880502C404E6820
:104D980016F4803F01D042EA05043D4AC2F880403B
:104DA80001330A6832FA03F471D04FF0010C0CFA9F
:104DB80003FC1CEA0202F3D04C6804F00304013C33
:104DC800012C88D94C6804F00304032C0CD0C46867
:104DD8005D004FF0030C0CFA05FC24EA0C0C8C68FF
:104DE800AC4044EA0C04C4604C6804F00304022C90
:104DF80085D004684FEA430E4FF0030C0CFA0EFC02
:104E080024EA0C0C4C6804F0030404FA0EF444EA97
:104E18000C0404604C6814F4403FC1D04FEA930C72
:104E28000CF118051A4C54F8255003F0030E4FEAFC
:104E3800CE0E0F2404FA0EF425EA0405154CA04200
:104E48003FF475AF04F58064A04216D004F5806481
:104E5800A04214D004F58064A04212D004F5806406
:104E6800A04210D004F58064A0420ED004F58064FE
:104E7800A0423FF45AAF07245AE7012458E7022416
:104E880056E7032454E7042452E7052450E7F0BD0D
:104E980000F40240000002420369194201D00120D7
:104EA8007047002070470AB181617047816270477E
:104EB800024B186800F4C060704700BF00700040E3
:104EC800024A536843F4806353607047007000409F
:104ED800024A936843F4804393607047007000402F
:104EE800074B1B6913F4805006D113F4004F00D010
:104EF80070474FF4004070474FF48050F8E700BF08
:104F08000070004038B505461E4B1C68FFF7E8FFE7
:104F1800B0F5004F2DD004F4C0641A4BDB6813F4CD
:104F2800004F28D1AC4228D0164A136823F4C06336
:104F38002B431360144B1B685B09144AA2FB032321
:104F4800DB09322202FB03F3114AA2FB0323DB082D
:104F5800013300E0013B0B4A526912F4806F01D023
:104F6800002BF7D1074B5B6913F4806F07D1002042
:104F780038BD0120FCE70120FAE70020F8E703200C
:104F8800F6E700BF0070004098000020C55A7C0A70
:104F9800CDCCCCCC002807DB00F01F024009012350
:104FA8009340024A42F82030704700BF00E100E019
:104FB800002808DB4901C9B200F1604000F56140F2
:104FC80080F80013704700F00F004901C9B2014B87
:104FD8001954704714ED00E000B500F00700C0F167
:104FE800070CBCF1030F28BF4FF0030CC31C062BA2
:104FF8000FD9031F4FF0FF3E0EFA0CF021EA000113
:1050080099400EFA03FE22EA0E0241EA02005DF818
:1050180004FB0023EEE70000074AD36823F4E063AB
:105028001B041B0C000200F4E060034343F0BF6361
:1050380043F40033D360704700ED00E010B5044638
:10504800054BD868C0F30220FFF7C6FF014620468B
:10505800FFF7AEFF10BD00BF00ED00E008B5FFF799
:1050680099FF08BD0138B0F1807F0BD24FF0E023E3
:105078005861054AE02182F8231000209861072230
:105088001A6170470120704700ED00E0074B1B686C
:1050980013F0010F07D1054A136823F004030343F3
:1050A8001360002070470120704700BF00040340D0
:1050B800034A136843F0010313600020704700BFE0
:1050C80000040340026852E8003F23F4907342E86A
:1050D80000310029F6D1026802F1080353E8003FC5
:1050E80023F0805323F00103083242E800310029FD
:1050F800F1D1C36E012B06D02023C0F88C300023D9
:10510800C36643677047026852E8003F23F0100304
:1051180042E800310029F6D1EEE7000070B50446F8
:10512800016883680269134342691343C2691343E0
:105138000868974A02401A430A602268536823F4B1
:105148004053E1680B435360A1692268914B9A422E
:1051580001D0236A1943936823F06E4323F4306324
:105168000B4393602268D36A23F00F03616A0B43F1
:10517800D3622368884A934210D0884A934221D048
:10518800874A934237D0874A93425CD0864A9342F3
:105198006BD0804A93427DD010223AE002F5584203
:1051A800D2F8882002F00302032A09D8DFE802F0C7
:1051B8000204870601222CE004222AE0082228E0C3
:1051C800102226E002F5E632D2F8882002F00C021E
:1051D8000C2A0ED8DFE802F0070D0D0D090D0D0D94
:1051E800750D0D0D0B00002213E0042211E00822BA
:1051F8000FE010220DE002F5E432D2F8882002F028
:105208003002202A5FD01AD8002A5ED0102A5ED138
:10521800042260498B4276D0E069B0F5004F00F077
:10522800CB80082A00F23681DFE812F0F9001B0172
:10523800F70034011E013401340134012101302A00
:1052480047D10822E5E702F5E232D2F8882002F0D9
:10525800C002802A3FD004D8FAB3402A3FD10422A2
:10526800D7E7C02A3DD10822D3E702F5E032D2F8C9
:10527800882002F44072B2F5007F34D005D8A2B37A
:10528800B2F5807F33D10422C3E7B2F5407F30D135
:105298000822BEE702F5C832D2F8882002F440623C
:1052A800B2F5006F27D005D83AB3B2F5806F26D192
:1052B8000422AEE7B2F5406F23D10822A9E7022203
:1052C800A7E70222A5E70222A3E70022A1E710220E
:1052D8009FE710229DE702229BE7002299E7102210
:1052E80097E7102295E7022293E7002291E7102220
:1052F8008FE710228DE702228BE7002289E7102230
:1053080087E7102285E7082A00F2B480DFE802F078
:1053180008383EB23BB2B2B205004FF4004004E098
:10532800FFF7F2F8002800F0A780626A1F4B33F8F5
:105338001220B0FBF2F3656805EB4501994200F2D3
:105348009D80B3EB053F00F29B8000263346314633
:10535800FAF758FF090241EA106100026B08C01809
:105368002A46334641F10001FAF74CFFA0F5407296
:105378000F4B9A4200F286802368D860304667E077
:10538800FFF7D2F8CEE7FEF76BFBCBE70948CCE78F
:10539800F369FFCF0080004000380140004400401E
:1053A80000480040004C0040005000409080000839
:1053B800FFFC0F000024F400082A65D8DFE802F09B
:1053C800072705642A6464640B00354803E0FFF787
:1053D8009BF800285AD0626A324B33F81230B0FB7F
:1053E800F3F06268530803EB4003B3FBF2F3A3F155
:1053F80010014FF6EF7291424AD89AB222F00F028A
:10540800C3F3420313432268D360002020E0FFF770
:105418008BF8DEE7FEF724FBDBE7214803E0FFF724
:1054280073F8002838D0626A1E4B33F81230B0FB8C
:10543800F3F0636800EB5300B0FBF3F0A0F1100247
:105448004FF6EF739A4229D8236880B2D8600020BB
:105458000123A4F86A30A4F8683000236367A367BF
:1054680070BDFFF761F8DCE7FEF7FAFAD9E74FF409
:105478000040D8E70120EBE70020E9E70120E7E753
:105488000120E5E70120E3E70120E1E70020DFE76D
:105498000120DDE70120DBE70020D9E70120D7E77D
:1054A8000024F40090800008836A13F0010F06D0EE
:1054B8000268536823F40033C16A0B435360836A5C
:1054C80013F0020F06D00268536823F48033016B8F
:1054D8000B435360836A13F0040F06D002685368C5
:1054E80023F48023416B0B435360836A13F0080F46
:1054F80006D00268536823F40043816B0B43536062
:10550800836A13F0100F06D00268936823F480535F
:10551800C16B0B439360836A13F0200F06D00268B7
:10552800936823F40053016C0B439360836A13F070
:10553800400F0AD00268536823F48013416C0B4370
:105548005360436CB3F5801F0BD0836A13F0800F50
:1055580006D00268536823F40023C16C0B435360E0
:1055680070470268536823F4C003816C0B4353608F
:10557800EBE72DE9F84305460F4616469946DDF850
:1055880020802B68DC6937EA04040CBF012400245E
:10559800B44232D1B8F1FF3FF3D0FDF73BFEA0EBA8
:1055A800090040452CD8B8F1000F2BD02B681A6899
:1055B80012F0040FE5D0DA6912F0080F11D1DA6998
:1055C80012F4006FDDD04FF400621A622846FFF72C
:1055D80079FD2023C5F89030002385F88430032016
:1055E8000CE008241C622846FFF76CFDC5F89040C3
:1055F800002385F88430012000E00020BDE8F8830E
:105608000320FBE70320F9E730B583B00446002305
:10561800C0F89030FDF7FEFD05462268126812F0CA
:10562800080F10D123681B6813F0040F28D120231A
:10563800C4F88830C4F88C300020E066206784F80D
:10564800840003B030BD6FF07E4300930346002210
:105658004FF400112046FFF78CFF0028E2D02268A3
:1056680052E8003F23F0800342E800310029F6D1D8
:105678002023C4F88830002384F884300320E0E72E
:105688006FF07E4300932B4600224FF480012046A2
:10569800FFF76FFF0028CAD0226852E8003F23F4C2
:1056A800907342E800310029F6D1226802F108031C
:1056B80053E8003F23F00103083242E80031002993
:1056C800F3D12023C4F88C30002384F884300320DD
:1056D800B7E778B310B50446D0F888300BB3242365
:1056E800C4F888302268136823F001031360204649
:1056F800FFF714FD012813D0A36ABBB922685368C9
:1057080023F4904353602268936823F02A0393603C
:105718002268136843F0010313602046FFF774FF03
:1057280010BD80F88430FBF7A3FAD8E72046FFF7CE
:10573800BBFEE3E701207047436E2BB90123A0F8B5
:105748006A30A0F86830704730B403689A68C2F3CA
:1057580042629968490F094D6B5CDB00084C615C3B
:1057680093FBF1F3A0F86A30AB5CDB00A25C93FB1F
:10577800F2F3A0F8683030BC704700BFB080000872
:10578800A880000890F88430012B18D0012380F8F5
:1057980084302423C0F8883003681A68196821F017
:1057A8000101196022F000520023436601680A6073
:1057B8002022C0F8882080F88430184670470220DC
:1057C800704738B590F88430012B1DD0044601236A
:1057D80080F884302423C0F8883003681D681A686C
:1057E80022F001021A600268936823F060431943AB
:1057F8009160FFF7A1FF23681D602023C4F888305B
:10580800002084F8840038BD0220FCE738B590F801
:105818008430012B1DD00446012380F884302423D2
:10582800C0F8883003681D681A6822F001021A60FF
:105838000268936823F0606319439160FFF77CFF67
:1058480023681D602023C4F88830002084F8840071
:1058580038BD0220FCE70000034AD2F8883043F440
:105868007003C2F88830704700ED00E02F4B1B68CA
:1058780013F0080F16D12D4BD3F89430C3F303233C
:105888002B4A52F82320294B9B6803F00C030C2B5E
:1058980048D8DFE803F00C4747470F474747134707
:1058A80047471700214B1B68C3F30313E8E7214B55
:1058B8001A6028E01F4B204A1A6024E01D4B1F4A3B
:1058C8001A6020E0194BD96801F00301DB68C3F3C3
:1058D80003130133022904D003291FD0B2FBF3F2CA
:1058E80002E0154AB2FBF3F21049CB68C3F3062372
:1058F80002FB03F3CA68C2F3416201325200B3FBF0
:10590800F2F30C4A1360094B9B68C3F303130C4A68
:10591800D15C084A1368CB4013607047074AB2FB52
:10592800F3F2E1E7034B1A60EDE700BF0010024015
:10593800B8800008980000200024F4000048E8011E
:105948000081000898B108B503460020C3F8B802E2
:10595800C3F8C402C3F8D00209B1C3F8B4120121D4
:1059680083F89C121A701846FBF790FA08BD0320BA
:10597800704710B582B00023ADF8063089B10446EF
:10598800C0F8B812CB6A23B10DF106009847C4F8E5
:10599800D002D4F8D8320133C4F8D832002002B08B
:1059A80010BD0320FBE708B5FBF7B8FA08BD08B53A
:1059B800D0F8B83213B11B68984708BD0020FCE73F
:1059C80008B5D0F8B8325B68984700B908BD03201D
:1059D800FCE738B5044600F2AA25284600F089F904
:1059E8000123C4F89432B4F8B032C4F8983294F869
:1059F800AA1201F01F03012B0DD0022B10D02BB1DE
:105A080001F080012046FBF7A4FA03E0294620466E
:105A180000F056FB38BD2946204600F08CFBF9E71C
:105A28002946204600F0C9FBF4E7F8B504460123EF
:105A380080F89C320023C0F894324360C0F8A43246
:105A480080F8A032D0F8B832DBB15B68DBB1002156
:105A580098470746C8B94023002211462046FBF75D
:105A680065FA0126A4F864614025C4F860512B4604
:105A7800002280212046FBF759FAA6842562384681
:105A8800F8BD0027E7E70027E5E70327E3E7017408
:105A98000020704790F89C32DBB2042B04D090F8B9
:105AA8009C32DBB280F89D32042380F89C320020BF
:105AB800704790F89C32DBB2042B01D0002070476D
:105AC80090F89D32DBB280F89C32F7E708B590F881
